:10000000E008040000000000000000000000000004
:1000100000000000000000000000000000000000E0
:1000200000000000000000000000000000000000D0
:1000300000000000000000000000000000000000C0
:1000400000000000000000000000000000000000B0
:1011C000EF842000F0FF270020A0B70010002000CF
:1011D00034A0B700400020004420B70000090200FE
:1011E000000000000A09020000000000E5FF0700FF
:1011F000A9FF0700B7FF0700FEFF3700FFFF37001A
:101184008A1F78008B1F78008C1F78000B58220070
:101194000C0020000AC2B30057FF07002BC0B300A5
:1011A4006A81200083FF070094FC07004F06780043
:0C11B400CF0578004F0578000000060011
:100EFC008A1F78008B1F78008C1F78001200370037
:100F0C000B0578008C057800DBFE07001900370014
:100F1C000B0578008C0578002AFF070015003700B8
:100F2C000B0578008C057800FDFE070011003700DA
:100F3C000B0578008C057800F4FE07000D003700D7
:100F4C0010C0B3000B0037006054E100ECFF32001E
:100F5C006154E100EEFF320000C2B3000054E10026
:100F6C00EFFF320000C3B3000054E100F0FF320089
:100F7C00F3FF37004F067800CF0578004F05780057
:040F8C00000006005B
:100A84007EFF070020322000604288000020EF0033
:040A94000000060058
:100880000800FA002032200040428800F0FF2F00CC
:1008900030428800F0FF2F0010428800F0FF2F0048
:1008A000204288003022EF000000280032A2B7006A
:1008B0003062A90039FF07000001BE00803E200021
:1008C00001002000D7FE07000001BE00D3FE070094
:1008D0004100DE00640040008000780060004700B6
:1008E0000A88BE008100E900030035001018D0001E
:1008F0001090D200FBFF3700829FBE008A9FBE008F
:100900000200BE000E0190009E0190000002EB006C
:10091000F6FE07004F05BE004F01BE0020079800FD
:10092000310798008A9FBE000200BE000E019000B1
:100930009E0190000002EB00C3FE07004F05BE00C1
:100940008001780001027800600047005001D1006A
:10095000C080D300640047003008E1002090E1002F
:100960000700310061804100E0004A008002780009
:100970000103780005017800860178000200370045
:1009800003017800840178000280710033003A008E
:1009900002FF07000001BE00803E20000100200091
:1009A000A0FE07000001BE009CFE07004100DE0023
:1009B00000A0EC0080007800600047000A88BE00BC
:1009C0008100E900030035001018D0001090D2001B
:1009D000FBFF3700829FBE000200BE000E019000A8
:1009E0009E0190000002EB00C0FE07004F01BE0018
:1009F00020079800310798000200BE000E01900009
:100A00009E0190000002EB008FFE0700800178003D
:100A100001027800600047005001D100C080D3007F
:100A2000640047003008E1002090E1000700310039
:100A300061804100E0004A008002780001037800F4
:100A40000501780086017800020037000301780074
:100A5000840178003062A800000037006100510076
:100A6000E0805900C01188003222A90031E2A800BC
:100A70003342A80062FE070061FE07000080FA0012
:040A8000000006006C
:0C059C0000F42100010020000000060017
:08041C00200020000000060092
:1004000038002000578D20000E20ED00FEFF3A003E
:0C0410001020ED00FCFF3A000000060088
:100424000000FA00020AB800500088000200B80078
:1004340081004200032AB800810042000080FA00D3
:0404440000000600AE
:1004EC000000FA0002000700CA020400000000002D
:1004FC000800E20002003A001000070000000600AD
:10050C00811F78000200E20002003D006000100034
:10051C00E08018000600E20002003D0060011100BE
:10052C00E0811900050007004F00E00002003B00CD
:10053C0060001000E08018000000060002000700B8
:10054C000480BE00000006006022B80006022000F5
:10055C000000D0008180D2000482D2008582D200BB
:10056C000000A8000202520083825A0003003B00E4
:10057C000202420083824A000000A1000603E90047
:10058C00F3FF3A00000006000080FA0000000600AD
:100448000000FA0002000700720204000000000029
:100458000800E20002003A00100007000000060051
:10046800839F68000200E20002003D006000100067
:10047800E08018000600E20002003D006001110063
:10048800E0811900050007004F00E00002003B0072
:1004980060001000E0801800000006006022B8002C
:1004A800060220000000D0008180D2000482D20021
:1004B8008582D2000000A8000202520083825A00FE
:1004C80003003B000202420083824A000000A100B0
:1004D8000603E900F3FF3A00000006000080FA0076
:0404E800000006000A
:080BD00060C0B3000000060044
:100B2C0054FF070020322000604288000020EF00B4
:040B3C0000000600AF
:100B1800D1FE070020432000604288000020EF003B
:040B280000000600C3
:100660000800FA002043200040428800F0FF2F00DD
:1006700030428800F0FF2F0010428800F0FF2F006A
:10068000204288002022EF000000280022A2B700AC
:100690002062A900C1FF07000001BE00803E2000CB
:1006A000010020005FFF07000001BE005BFF0700A4
:1006B0004100DE00640040008000780060004700D8
:1006C0000A88BE008100E900030035001018D00040
:1006D0001090D200FBFF3700829FBE008A9FBE00B1
:1006E0000200BE000E0190009E0190000002EB008F
:1006F0007EFF07004F05BE004F01BE002007980097
:10070000310798008A9FBE000200BE000E019000D3
:100710009E0190000002EB004BFF07004F05BE005A
:100720008001780001027800600047005001D1008C
:10073000C080D300640047003008E1002090E10051
:100740000700310061804100E0004A00800278002B
:100750000103780005017800860178000200370067
:1007600003017800840178000280710033003A00B0
:100770008AFF07000001BE00803E2000010020002B
:1007800028FF07000001BE0024FF07004100DE0033
:1007900000A0EC0080007800600047000A88BE00DE
:1007A0008100E900030035001018D0001090D2003D
:1007B000FBFF3700829FBE000200BE000E019000CA
:1007C0009E0190000002EB0048FF07004F01BE00B1
:1007D00020079800310798000200BE000E0190002B
:1007E0009E0190000002EB0017FF070080017800D7
:1007F00001027800600047005001D100C080D300A2
:10080000640047003008E1002090E100070031005B
:1008100061804100E0004A00800278000103780016
:100820000501780086017800020037000301780096
:10083000840178002062A8000000370061005100A8
:10084000E0805900401188002222A90021E2A8007E
:100850002342A800EAFE0700E9FE07000080FA0034
:04086000000006008E
:100FB8000200FA008A1F78008A007800D00020001A
:100FC80000479800A000200010479800250037002F
:100FD80001057800C7FE07002900370001007800E6
:100FE8001004E00008003200801F78008A9FBE00CD
:100FF80000057800BFFE07004F05BE004F007800CF
:101008000020EC00F6FF37001D00370001007800D3
:101018001004E00008003200801F78008A9FBE009C
:1010280000057800B3FE07004F05BE004F007800AA
:101038000020EC00F6FF3700600047008A9FBE00E2
:1010480000057800ABFE0700610047000005780046
:10105800A8FE07004F05BE000900370060C0B300B6
:1010680007003700605CE100D9FF3200615CE100F5
:10107800DAFF3200625CE100E4FF3200F7FF37007C
:0C1088004F0578000080FA000000060010
:100AFC008A1F78001A85FB0060428000000001000C
:0C0B0C000020EF004F05780000000600FC
:100864000000FA002302AF0001003700FDFF37004B
:0C0874002A1188000080FA000000060035
:100644000000FA003302AF0001003700FDFF37005D
:0C065400AA1188000080FA0000000600D7
:101098008A1F78008B1F78002A042800BAFF0700EF
:1010A8001AC0B30085FF0700F8FF0700B8FF070064
:1010B800D1FC07002BC0B300AA822000BCFF0700A8
:0C10C800CF0578004F05780000000600FE
:080F9000C1FE0700000006008D
:040A98000000060054
:100EC4006154E10006003A00F03F2000F041880040
:100ED4000184200030C3B300804878000500370047
:100EE400F0FF2000F041880001842000D0CCB30042
:080EF4008048780000000600B0
:041094000000060052
:100F98008A1F78008B1F78001620EF001A002000A7
:100FA800BCFE0700CF0578004F057800000006005A
:100A9C000000FA00202F200050428800000E200099
:100AAC0020A3B700CA50DD0000322000108870006F
:100ABC0001002E002032200001886500F0F3210097
:100ACC0024A3B7003223EF003023EF002E23EF00D6
:0C0ADC0021E3A8000080FA0000000600E2
:1010D4003200FA008A1F78008B1F78000620EF0088
:1010E4000820EF006524E10007003100831F780029
:1010F400B8FE0700CF017800808141006BFF070034
:101104000860EC00F7FF37005200200011000900CE
:101114008281D80000057800DEFE070000417800D7
:1011240001C0B3000104E1000B003200600047007D
:10113400800578000285FB00AEFE07001BC0B300EB
:101144000A8020009BFF0700600047002BC0B3000B
:101154000005780097FF07007800200017A82100F9
:101164000E20ED00FEFF3A001020ED00FCFF3A00D7
:10117400CF0578004F0578000080FA0000000600D3
:100BD8008A1F78008A002000C1FF07000001780002
:100BE8008001EB000200BE004F05780000000600FF
:100AE8000000FA00AEFE0700BCFE07000080FA0016
:040AF80000000600F4
:1005A8000000FA00202F200050428800000E200092
:1005B80020A3B7002143A9002223EF00F0F3210074
:1005C80024A3B7003223EF003023EF002E23EF00DF
:0C05D80021E3A8000080FA0000000600EB
:1005E4000000FA006F50E10007003600F0005500EB
:1005F400100020000100DD008080EA00A03220000D
:100604001088600005003700100020000A00DD009B
:100614008080EA00C0322000108860004A198800F7
:100624002023A8002003AF0001003700FDFF37009E
:100634002003A9000083BF000080FA000000060028
:100EB000574123000E20ED00FEFF3A000000000025
:040EC0000000060028
:100C9800F041800062002000110009000280D800A5
:100CA80080007800008420001080FB000080500045
:100CB8000050E1000C003900F04180006200200083
:100CC800110009000280D80080007800008420000C
:100CD8001080FB00008040000050E10002003E0050
:100CE80060C0B3006F003700F04180006200200050
:100CF800110009000280D800C100DD000084200036
:100D08001080FB00008050000050E1000C0039000A
:100D1800F041800062002000110009000280D80024
:100D2800C100DD00008420001080FB00008040002E
:100D38000050E10002003E0050C0B30059003700E7
:100D4800F041800062002000110009000280D800F4
:100D580080007800300020000009B80000842000DE
:100D68001080FB00000051000050E1000E00390027
:100D7800F041800062002000110009000280D800C4
:100D880080007800300020000009B80000842000AE
:100D98001080FB00000041000050E10002003E000E
:100DA80040C0B3003F003700F041800062002000DF
:100DB800110009000280D800C200DD000084200074
:100DC8001080FB00008050000050E1000C0039004A
:100DD800F041800062002000110009000280D80064
:100DE800C200DD00008420001080FB00008040006D
:100DF8000050E10002003E0030C0B3002900370077
:100E0800F041800062002000110009000280D80033
:100E180080007800500020000009B80000842000FD
:100E28001080FB00000051000050E1000E00390066
:100E3800F041800062002000110009000280D80003
:100E480080007800500020000009B80000842000CD
:100E58001080FB00000041000050E10002003E004D
:100E680020C0B3000F003700008420009080FB00F2
:100E7800E0832000108010000050E10008003900D5
:100E8800008420009080FB00E08320001080400058
:100E98000050E10002003E0010C0B300010037001E
:080EA8000020EF00000006002D
:100BF8000000FA008A1F78000820EF000A00780039
:100C08006050E10003003D00140020006000150062
:100C18000000370000057800C7FF070063002000C8
:100C2800040178006018E100060036008380450062
:100C38006180510000804500904878000620ED0052
:100C4800F8FF370000C2B300804D78000400E200CE
:100C58000C0032000420EF0002804500904078002C
:100C680000C2B300000CE10002003A000420EC00CE
:100C7800F9FF37006100510080804500D0C2B30001
:100C8800804878004F0578000080FA0000000600D0
:100B40000200FA000420EF006514E1000600310005
:100B50000280FB008080450000C2B300804878001E
:100B60000460EC00F8FF37000280FB008080450045
:100B70000020EF0080487800E14151000380FB0035
:100B80000080450000079800A20020001100090025
:100B90000285D80000032000808040000E009000F5
:100BA00001487800A2002000110009000285D80049
:100BB000000578006000E10001003A000200370003
:100BC0000660ED00EDFF37000080FA00000006002F
:101200000A8020000B002000260009000B1D78003A
:0412100000000600D4
:1012140001802000000028001F000900B018780099
:08122400B0587800000006003C
:020000040001F9
:1000000050720000657300007365000064200000FA
:1000100074680000652000006275000074740000C0
:0C0020006F6E0000203A0000200000007D
:10002C002D2D00002D20000053790000737400006A
:10003C00656D0000204900006E690000742000000E
:08004C002D2D00002D00000025
:100054005072000065730000732000007468000093
:100064006520000062750000747400006F6E00006B
:08007400203A000044000000E6
:04007C00000400007C
:040080003300000049
:10008400FFFF0000FFFF0000FFFF0000FFFF000074
:10009400FFFF0000FFFF0000FFFF0000FFFF000064
:1000A400FFFF0000FFFF0000FFFF0000FFFF000054
:1000B400FFFF0000FFFF0000FFFF0000FFFF000044
:1000C400FFFF0000FFFF0000FFFF0000FFFF000034
:1000D400FFFF0000FFFF0000FFFF0000FFFF000024
:0200000401F009
:20000000CF000000CF00000007000000A2000000850000007F000000E7000000C1000000ED
:00000001FF
