:100000000C94CB050C9400000C9400000C940000A0
:100010000C9400000C9400000C9400000C94000060
:100020000C9400000C9400000C9400000C94000050
:100030000C9400000C9400000C9400000C94000040
:100040000C9400000C9400000C9400000C94000030
:040050000C9400000C
:100B9600BFE5BDBFB8E0BEBF0E940F0689DF6FDFAD
:060BA600A4DFFECFFFCF2B
:100AB6002F923F924F925F926F92B0E83B2EB5E233
:100AC6004B2EB0E05B2E6B2EB0E12B2E86DFB2E014
:100AD6004B2EBDE82B2EB0E03B2E0DDF74DF6F9062
:0A0AE6005F904F903F902F9008950D
:1009E0002F923F924F925F926F921AC0232C342C19
:1009F000452C562CA3DC21C0232C342C452C562C02
:100A000021DD1BC0232C342C452C562C19DD15C0A0
:100A1000232C342C452C562C97DD0FC001E00DC043
:100A2000B0E02B1619F3B1E02B1631F3B2E02B1620
:100A300049F3B0E12B1661F3F1CF6F905F904F90C7
:060A40003F902F90089585
:10033C002BC0B7E6B9B9B0E0B0BD20DF73C0B3E3F2
:10034C00B9B9B0E0B0BD1ADF6DC0B9E1B9B9B0E070
:10035C00B0BD14DF67C0BCE0B9B9B0E0B0BD0EDF12
:10036C0061C0BBB1B260BBB9B0E1B9B9B0E0B0BD6E
:10037C0005DF58C0BBB1B260BBB9B8E0B9B9B0E0E9
:10038C00B0BDFCDE4FC04EC0B0E05B1641F4B0E037
:10039C004B1629F4B2E13B1611F4B0EC2B1649F2D2
:1003AC00B0E05B1641F4B0E04B1629F4B5E23B1615
:1003BC0011F4B0E82B1609F4C2CFB0E05B1641F48F
:1003CC00B0E04B1629F4BBE43B1611F4B0E02B164D
:1003DC0009F4BBCFB0E05B1641F4B0E04B1629F446
:1003EC00B6E93B1611F4B0E02B1609F4B4CFB0E02B
:1003FC005B1641F4B0E04B1629F4B1EE3B1611F448
:10040C00B0E02B1609F4ADCFB0E05B1641F4B1E0CF
:10041C004B1629F4B2EC3B1611F4B0E02B1609F490
:10042C00A9CFB1CFB8EEB093A300B0E0B093A400C5
:04043C0000E008953F
:10018800B8EEB093A900B0E0B093AA00BFEFB09367
:10019800AB00BFEFB093AC00BFEFB093A500BFEFCB
:1001A800B093A600BFEFB093A700BFEFB093A8002D
:1001B800B1B3BE7FB1BBB1B3B260B1BB0AB1086124
:0801C8000AB9B6E8B0BD0895C4
:100444002BC0B7E6B9B9B0E0B0BD9CDE73C0B3E36E
:10045400B9B9B0E0B0BD96DE6DC0B9E1B9B9B0E0EC
:10046400B0BD90DE67C0BCE0B9B9B0E0B0BD8ADE13
:1004740061C0BBB1B260BBB9B0E1B9B9B0E0B0BD65
:1004840081DE58C0BBB1B260BBB9B8E0B9B9B0E065
:10049400B0BD78DE4FC04EC0B0E05B1641F4B0E0B2
:1004A4004B1629F4B2E13B1611F4B0EC2B1649F2C9
:1004B400B0E05B1641F4B0E04B1629F4B5E23B160C
:1004C40011F4B0E82B1609F4C2CFB0E05B1641F486
:1004D400B0E04B1629F4BBE43B1611F4B0E02B1644
:1004E40009F4BBCFB0E05B1641F4B0E04B1629F43D
:1004F400B6E93B1611F4B0E02B1609F4B4CFB0E022
:100504005B1641F4B0E04B1629F4B1EE3B1611F43E
:10051400B0E02B1609F4ADCFB0E05B1641F4B1E0C6
:100524004B1629F4B2EC3B1611F4B0E02B1609F487
:10053400A9CFB1CFB8EEB093A300B0E0B093A400BC
:0405440000E0089536
:0404400006E0089535
:100548002BC0B7E6B9B9B0E0B0BD1ADE73C0B3E3EB
:10055800B9B9B0E0B0BD14DE6DC0B9E1B9B9B0E069
:10056800B0BD0EDE67C0BCE0B9B9B0E0B0BD08DE12
:1005780061C0BBB1B260BBB9B0E1B9B9B0E0B0BD60
:10058800FFDD58C0BBB1B260BBB9B8E0B9B9B0E0E3
:10059800B0BDF6DD4FC04EC0B0E05B1641F4B0E030
:1005A8004B1629F4B2E13B1611F4B0EC2B1649F2C4
:1005B800B0E05B1641F4B0E04B1629F4B5E23B1607
:1005C80011F4B0E82B1609F4C2CFB0E05B1641F481
:1005D800B0E04B1629F4BBE43B1611F4B0E02B163F
:1005E80009F4BBCFB0E05B1641F4B0E04B1629F438
:1005F800B6E93B1611F4B0E02B1609F4B4CFB0E01D
:100608005B1641F4B0E04B1629F4B1EE3B1611F439
:10061800B0E02B1609F4ADCFB0E05B1641F4B1E0C1
:100628004B1629F4B2EC3B1611F4B0E02B1609F482
:10063800A9CFB1CFB8EEB093A300B0E0B093A400B7
:0406480000E0089531
:1008FC00CF93DF93CDB7DEB72297CDBFDEBF219666
:10090C002F923F928101BDE0B883BAE0B98341C018
:10091C00180100DD4AC09801F9010081002389F01B
:10092C003F932F934F923F922F921901F3DC2F900C
:10093C003F904F902F913F9189010F5F1F4F98016E
:10094C00EBCF33C09801F9010081002389F03F936C
:10095C002F934F923F922F921901DCDC2F903F90F6
:10096C004F902F913F9189010F5F1F4F9801EBCF53
:10097C008E014F923F922F921801CCDC8E010F5FAB
:10098C001F4F1801C7DC2F903F904F900EC006E010
:10099C000DC0B0E04B1609F4BBCFB1E04B1609F417
:1009AC00BACFB2E04B1671F2F2CF00E03F902F902D
:0C09BC002196CDBFDEBFDF91CF910895E2
:100320002F923F92F1010081202EE091A300F091E5
:0C033000A400099500E03F902F90089574
:1001D000BBB1B5FD01C0FCCFBBB1B6FF03C0BBB125
:0801E000B064BBB92CB808950E
:0A01E80020FABBB3B7F9BBBB0895C2
:0A017E0020FABBB3B6F9BBBB08952D
:0A01600020FABBB3B5F9BBBB08954C
:0A016A0020FAB8B3B7F9B8BB089546
:0A01740020FAB8B3B6F9B8BB08953D
:0A01F20020FAB8B3B5F9B8BB0895C0
:0A02240020FAB2B3B4F9B2BB08959A
:0A022E0020FAB2B3B2F9B2BB089592
:0A02380020FAB2B3B0F9B2BB08958A
:0A021A0020FAB2B3B1F9B2BB0895A7
:0A01FC0020FAB5B3B0F9B5BB0895C1
:0A02060020FAB5B3B1F9B5BB0895B5
:0A02100020FABBB3B0F9BBBB0895A0
:0A00A40020FABBB3B1F9BBBB08950D
:0A009A0020FABBB3B3F9BBBB089515
:0A00900020FAB8B3B7F9B8BB089521
:0A00C20020FAB8B3B6F9B8BB0895F0
:0A00B80020FAB8B3B5F9B8BB0895FB
:0A00AE0020FAB2B3B5F9B2BB089511
:0A00680020FAB2B3B3F9B2BB089559
:0A005E0020FAB2B3B0F9B2BB089566
:0A00540020FAB2B3B1F9B2BB08956F
:0A00860020FAB5B3B0F9B5BB089538
:0A007C0020FAB5B3B1F9B5BB089541
:0A00720020FABBB3B4F9BBBB08953C
:0A01380020FAB8B3B0F9B8BB08957F
:0A012E0020FAB8B3B4F9B8BB089585
:0A01240020FAB8B3B7F9B8BB08958C
:0A01560020FAB8B3B6F9B8BB08955B
:0A014C0020FAB8B3B5F9B8BB089566
:0A01420020FAB8B3B3F9B8BB089572
:0A00E00020FAB8B3B2F9B8BB0895D6
:0A00D60020FAB2B3B2F9B2BB0895EC
:0A00CC0020FAB2B3B3F9B2BB0895F5
:0A011A0020FAB5B3B0F9B5BB0895A3
:0A01100020FAB5B3B1F9B5BB0895AC
:1009CC0025E01FE002EF0A95F1F71A95E1F72A9559
:0409DC00D1F70895B2
:100A84002F923F924F92BDEE2B2EBBE03B2E9ADF6E
:100A9400B1E02B2ED9DFD7DFD4DF96DFB2E04B2EC7
:100AA400B9E72B2EB0E03B2E27DF4F903F902F90DD
:020AB4000895A3
:0409C80047DC08956B
:02025800089507
:100A4C00B1E02B1651F4BFEFB0936100B3E0B0935B
:100A5C006200B3E3B093600009C0BFEFB0936100D4
:0E0A6C00BFE0B0936200BDECB093600008954F
:020A4A0008950D
:040A4600FDDB089537
:10024200B5E7B093A100B0E0B093A200B7E8B6B9A9
:06025200B0E0B7B9089509
:100AF000CF93DF93CDB7DEB7E297CDBFDEBF2196B0
:100B00002F923F924F925F9250E060E040E045307C
:100B100080F46F935F934F93F9DD4F915F916F91E5
:100B2000050F161F502F612FE2DE042F0F5F402F9D
:100B3000EECF052F162F45E050E0DEDB8C011801CB
:100B4000F0DD202F003091F08E012801222EB0E040
:100B50003B2E7CDDB1E04B2EB3E62B2EB0E03B2EDE
:100B6000CDDE8E01B2E04B2E1801C8DE2DE01DE275
:100B700008ED0A95F1F71A95E1F72A95D1F70000EB
:100B800000005F904F903F902F90E196CDBFDEBF69
:060B9000DF91CF910895F2
:10070C002F92B7E02B2EA3DDA80160E0762F8A0193
:06071C009B012F900895DF
:06025A00F3DF46DF08950A
:1000EA0007B1007E022907B9B6B1B064B6B9B6B194
:1000FA00B6FF01C0FCCF24B130E005B1102F0027B4
:06010A00022B132B0895E7
:0E08EE0018E605EE0A95F1F71A95E1F7089560
:1007220046E050E00091610010916200E4DD8C012E
:1007320000906000B0E01B2E00191109201631064E
:1007420090F046E050E00091610010916200D3DD2C
:100752008C0120916000020FB0E01B1F02151305EF
:1007620010F006E0C2C046E050E000916100109136
:100772006200C1DD8C01000F111F00906000B0E02B
:100782001B2E0019110920163106A8F046E050E090
:100792000091610010916200AEDD8C019801220F80
:1007A200331F0091600010E0020F131F02151305A2
:1007B20010F005E09AC046E050E00091610010910F
:1007C200620099DD8C0143E050E08DDD0090600015
:1007D200B0E01B2E0019110920163106A8F046E0E0
:1007E20050E0009161001091620085DD8C0143E0D0
:1007F20050E079DD20916000020FB0E01B1F02156E
:10080200130510F004E071C046E050E00091610071
:100812001091620070DD8C01000F111F000F111F7B
:1008220000906000B0E01B2E00191109201631065D
:10083200B8F046E050E000916100109162005BDD8B
:100842008C019801220F331F220F331F0091600089
:1008520010E0020F131F0215130510F003E045C04C
:1008620046E050E0009161001091620044DD8C018D
:1008720045E050E038DD00906000B0E01B2E00192A
:10088200110920163106A8F046E050E000916100FF
:100892001091620030DD8C0145E050E024DD2091B2
:1008A2006000020FB0E01B1F0215130510F002E0FA
:1008B2001CC000906000B0E01B2E009161001091FE
:1008C2006200001911092016310670F020916100B2
:1008D200309162000091600010E0020F131F0215B8
:0C08E200130510F001E001C000E00895D3
:1002F800C801BA01AA1BBB1B51E107C0AA1FBB1F3B
:10030800A617B70710F0A61BB70B881F991F5A9599
:08031800A9F780959095089566
:1002E8009801249F8001259F100D349F100D0895BB
:0002F80006
:10064C00CF93DF93CDB7DEB72497CDBFDEBF219616
:10065C002F923F92B0E0B883B9832A823B8200E0AC
:10066C0010E02016310654F4B1E0B883B0E0B98341
:10067C0000E010E0021913090A831B832A803B80D7
:10068C00E9DD66E070E0AB0100E010E0041715074F
:10069C0090F49A01240D351D8A0101501040F80187
:1006AC00E40DF51D0081F90100838A010150104011
:1006BC00B801AB01E9CFF201B0E2B0830881198136
:1006CC00B02FB12BA9F020E030E0F901E40DF51DBD
:1006DC000081003229F489010F5F1F4F9801F5CF7B
:1006EC00890101501040F801E40DF51DBDE2B08305
:1006FC003F902F902396CDBFDEBFDF91CF91089511
:00070C00ED
:10026000CF93DF93CDB7DEB72297CDBFDEBF219608
:1002700010E0153050F4E12FF0E0E40DF51DB0E290
:10028000B083012F0F5F102FF4CFE12FF0E0E40DCA
:10029000F51DB0E0B083012F0150302F032F10E087
:1002A000040D151D088319834AE050E0810124D014
:1002B0008D01202F205D08811981F80120834AE0FB
:1002C00050E0810119D08C011801103009F4003080
:1002D00009F404C0032F0150302FE0CF2196CDBF89
:0802E000DEBFDF91CF9108950C
:0A0A7A0005900D920197E1F7089531
:100C1E00A0E6B0E0ECEAFBE081E490E00E943D0546
:020C2E00089527
:100BED00F400BF00B000B500BA00F9001201170102
:100BFD001C010D01FE000301FFFFFFFFFFFFFFFFC3
:100C0D00FFFFFFFFFFFFFFFFFFFFFFFFFFFFFFFFE7
:010BAC003315
:020BAD00000442
:100BAF005072657373656420746865206275747420
:060BBF006F6E203A2000D9
:100BC50050726573732074686520627574746F6EF6
:040BD500203A44007E
:100BD9002D2D2D2053797374656D20496E6974200C
:040BE9002D2D2D0081
:00000001FF
