:10000000FCFF02207D1500003515000035150000AD
:1000100035150000351500003515000035150000B8
:1000200035150000351500003515000035150000A8
:100030003515000035150000351500003515000098
:100040003515000035150000351500003515000088
:100050003515000035150000351500003515000078
:100060003515000035150000351500003515000068
:100070003515000035150000351500003515000058
:100080003515000035150000351500003515000048
:100090003515000035150000351500003515000038
:1000A0003515000035150000351500003515000028
:1000B0003515000035150000351500003515000018
:1000C0003515000035150000351500003515000008
:1000D00035150000351500003515000035150000F8
:1000E00035150000351500003515000035150000E8
:1000F00035150000351500003515000035150000D8
:1001000035150000351500003515000035150000C7
:1001100035150000351500003515000035150000B7
:1001200035150000351500003515000035150000A7
:100130003515000035150000351500003515000097
:100140003515000035150000351500003515000087
:100150003515000035150000351500003515000077
:100160003515000035150000351500003515000067
:100170003515000035150000351500003515000057
:100180003515000035150000351500003515000047
:080190003515000035150000D3
:10157C0000F010F8FFF7DCFF00F0E6FBFFF7EEFFE2
:10158C0000F094FBFFF79EFFFFF784FFFFF73EFF91
:04159C00FCE7FEE783
:1014040081B01CF8019B0BF8019BBBEB0A0FF8D1D0
:0414140001B070476C
:1014F80081B04FF000094FF0000CBDEB0A0F04DC7F
:10150800BDEB0B0F01DBD446EA464BF8049BBBEB63
:101518000A0FFAD1BCEB0A0F05DDE246D9F800B094
:0A1528000BF1040BF1E701B070476E
:1014D00081B0CDF800E042F280511020FFF71AFEF3
:1014E00004480221FFF756FFFFF7FCFEDDF800E09D
:0814F00001B070472A00FF1F44
:1011140081B0CDF800E011E00846FFF7DBFF16E0F0
:101124000846FFF7A7FE12E00846FFF7DFFE0EE0D1
:101134000846FFF7C9FE0AE0012008E00028EBD0CA
:101144000128EDD00228EFD01028F1D0F4E7DDF823
:0611540000E001B070474D
:1010D80081B0CDF800E0FFF781FE044A04490A60B8
:1010E8000020DDF800E001B0704700BF210E0000CD
:0410F8004800FF1F8E
:100DE40081B0CDF800E003460A48FFF7AFFE0A4A97
:100DF40040F2000104B402B440F20002194640F289
:100E040000030448FFF772FE02B0DDF800E001B011
:0C0E1400704700BF00C00640A41B000097
:100B500081B0304988420CD12F4A30490A60304A6E
:100B600030490A60304A31490A60314A31490A60E5
:100B70004EE0314988420CD1304A28490A60304A57
:100B800028490A602F4A29490A602F4A29490A60E0
:100B90003EE02E4988420CD12D4A20490A602D4A58
:100BA00020490A602C4A21490A602C4A21490A60DE
:100BB0002EE02B4988420CD12A4A18490A602A4A59
:100BC00018490A60294A19490A60294A19490A60DC
:100BD0001EE0284988420CD1274A10490A60274A5A
:100BE00010490A60264A11490A60264A11490A60DA
:100BF0000EE0254988420BD1244A08490A60244A5C
:100C000008490A60234A09490A60234A09490A60D7
:100C100001B0704700A006408D0D00005C00FF1F72
:100C2000FFFFFFFF6000FF1FFFFFFFFF6400FF1FCC
:100C3000FFFFFFFF6800FF1F00B006403D0E0000F1
:100C4000FFFFFFFFFFFFFFFFFFFFFFFF00C00640AA
:100C5000210E0000FFFFFFFFFFFFFFFFFFFFFFFF71
:100C600000D00640350D0000FFFFFFFFFFFFFFFF34
:100C7000FFFFFFFF00A00E40B90C0000FFFFFFFFC9
:100C8000FFFFFFFFFFFFFFFF00B00E409D0C0000C5
:0C0C9000FFFFFFFFFFFFFFFFFFFFFFFF64
:100AF00085B0CDF800E001900291ADF80C20ADF882
:100B00001030BDF81440ADF814400698FFF7CAFE47
:100B10000198FFF727FF02990198FFF7E9FEBDF85A
:100B20000C100198FFF78AFDBDF810100198FFF72F
:100B300095FDBDF814100198FFF7DAFD0198FFF755
:100B40008BFE0198FFF7DAFDDDF800E005B0704795
:1008A40081B0CDF800E040F2000C83464FEA8C01A1
:1008B4000BEB01010968B1F1FF3F12D00BF13401D8
:1008C4004FEA8C03C91809680A460BEB030109684F
:1008D40008461146FFF71CFE0CF1010C1FFA8CFCB4
:0A08E400E4E7DDF800E001B0704722
:1005140082B0CDF800E080464FEA581202F007029C
:10052400914608F01F04A24693010D4AD3184FF0D8
:100534000102A240019218460A460199FFF7D8FF2A
:100544004FEA0933074AD3184FEA8A029C1808F481
:10055400E06322681A432260DDF800E002B07047CD
:0805640000F00F40009004407C
:1004F40081B0CDF800E0FFF7A1FFDDF800E001B026
:0205040070473E
:1004400083B0CDF800E006460C4615463046FFF76F
:10045000DFFF40F2FF1306EA030080090026224670
:100460002946202E39D24FF0010303FA06F402EA9E
:1004700004031F46A3422ED104031A4B1C19B300D8
:10048000E51801952C68184B04EA03032B60174B01
:1004900001EA0304019B1B6843EA0404019B1C60FE
:1004A00001F48033B3F5803F15D08401104B1B1944
:1004B0001433029301F400333BB1FC43029B1B68ED
:1004C00003EA0404029B1C6005E0029B1B6843EAEC
:1004D0000704029B1C60761CC3E7DDF800E003B054
:1004E000704700BF009004400000FFFFFFFF0000C6
:0404F00000F00F40C9
:1004100081B040F2FF1100EA01018909084600F2AB
:1004200009024FF0010101FA02F20449096841EAA8
:10043000020202490A6001B0704700BF38800440E0
:1009640081B01849884204D1012252B216490A6062
:1009740026E01649884204D1012252B214490A6081
:100984001EE01449884204D1012252B212490A607D
:1009940016E01249884204D1012252B210490A6079
:1009A4000EE01049884204D1012252B20E490A6075
:1009B40006E00E49884203D1012252B20C490A6072
:1009C40001B0704700A00640A806904200B006405F
:1009D400AC06904200C00640B006904200D00640EB
:1009E400B406904200A00E402805904200B00E408C
:0409F4002C059042FC
:1008F00085B0CDF800E08046894601AA1046FFF792
:1009000035FE164A904503D0154A904500D001E0C7
:10091000019800E002984FEA0912B0FBF2F291B29E
:1009200092B2130A9BB298F800201A4388F800206C
:1009300008F10103CAB21A7043014FEA0912B3FB6E
:10094000F2F34A0192B29A1AD0B208F10A031A7865
:1009500002431A70DDF800E005B0704700A00640C1
:0409600000B006409D
:10056C0081B0CDF800E00446FFF7C8FF40F2E83157
:10057C0000FB01F3194909680A0F1849096801F0D1
:10058C007061090EC8B21549096801F47001090DB2
:10059C00CDB21249096801F47021090CCEB2D1B266
:1005AC00491C09B259430F462360221D411C09B254
:1005BC00B7FBF1F1116004F20802691C09B2B7FB38
:1005CC00F1F1116004F20C02711C09B2B7FBF1F1EC
:1005DC001160DDF800E001B0704700BF44800440BA
:0C05080001480068704700BF5800FF1F4A
:10063C0081B0841C23784FF6EF7212B203EA0202E7
:10064C002270841C0B0122781A43227001B070476F
:10065C0081B001F0020262B1841C01F00203227825
:10066C001A432270841C01F0010322781A43227071
:10067C0007E0841C23784FF6FD7212B203EA0202E3
:06068C00227001B070476E
:0C06F00081B002780A43027001B070472C
:1008580081B0C21C117841F00401117001B07047D9
:1006FC0081B0C21C117841F00801117001B0704733
:100E780081B0CDF800E0FFF767FF044A04490A6033
:100E88000020DDF800E001B0704700BF350D00001C
:040E98004800FF1FF0
:100D500081B0CDF800E003460A48FFF7F9FE0A4AE1
:100D600040F2000104B402B440F20002194640F21D
:100D700000030448FFF7BCFE02B0DDF800E001B05C
:0C0D8000704700BF00D00640381B000088
:100EF00081B0CDF800E0FFF72BFF044A04490A60F7
:100F00000020DDF800E001B0704700BF350D0000A3
:040F10004800FF1F77
:100ECC0081B0CDF800E0FFF769FF044A04490A60DD
:100EDC000020DDF800E001B0704700BF8D0D000070
:040EEC004800FF1F9C
:100DA80081B0CDF800E003460A48FFF7CDFE0A4AB5
:100DB80040F2000104B402B440F20002194640F2C5
:100DC80000030448FFF790FE02B0DDF800E001B030
:0C0DD800704700BF00A00640CC1A0000CD
:1013940083B0CDF800E0024610460D228DF80820F7
:1013A4000A228DF809201FE0FFF754FD23E002789C
:1013B4002AB10190FFF74EFD0198401CF7E71AE0AF
:1013C40002782AB10190FFF745FD0198401CF7E728
:1013D40002AA1046FFF73EFD0DF109021046FFF781
:1013E40039FD08E0062007E00029DDD00129DED020
:1013F4000229E5D0F6E70020DDF800E003B07047ED
:100E580081B0CDF800E00178CCB2A0B2034C246890
:100E6800A0470020DDF800E001B070474800FF1FF0
:100D8C0081B0CDF800E081B20348FFF777FEDDF8C3
:0C0D9C0000E001B0704700BF00A006405E
:100A880081B0ADF800100146BDF800000A1D1378CA
:100A9800C3F3C01202B9F9E7CA1D107001B070475C
:100E3C0081B0CDF800E081B20348FFF71FFEDDF86A
:0C0E4C0000E001B0704700BF00B006409D
:100E200081B0CDF800E081B20348FFF72DFEDDF878
:0C0E300000E001B0704700BF00C00640A9
:100D340081B0CDF800E081B20348FFF7A3FEDDF8EF
:0C0D440000E001B0704700BF00D0064086
:100CB80081B0CDF800E081B20348FFF7E1FEDDF82E
:0C0CC80000E001B0704700BF00A00E402B
:100C9C0081B0CDF800E081B20348FFF7EFFEDDF83C
:0C0CAC0000E001B0704700BF00B00E4037
:1012E40040F6FE07C0F23D0700BF00BF7F1EFDD1E0
:0812F40000BF00BF00BF7047FE
:1014A00081B0CDF800E00848FFF712FFFFF704FF16
:1014B000FFF724FFFFF716FF04480221FFF76AFF3A
:1014C000DDF800E001B07047101C00000000FF1FB5
:1012D00081B0CDF800E0FFF71DFEDDF800E001B0C1
:0212E000704755
:020F1400704724
:1012B80081B0CDF800E04FF48050FFF751FEDDF823
:0612C80000E001B07047D8
:100F680081B0CDF800E080464849096869B1C8F306
:100F7800800149B14FF004014548FFF7CBFE4FF01F
:100F880008014348FFF7C6FE7BE0C8F3800121B1A2
:100F98004FF004013E48FFF7BDFE3E49096801B124
:100FA8001FE0C8F3001121B14FF004013A48FFF7E0
:100FB800B1FEC8F3401121B14FF002013748FFF7E5
:100FC800A9FEC8F3801121B14FF020013348FFF783
:100FD800A1FEC8F3C01121B14FF040012F48FFF71F
:100FE80099FEC8F3002121B14FF001012C48FFF709
:100FF80091FEC8F3402121B14FF002012848FFF7C4
:1010080089FEC8F3802121B14FF080012548FFF700
:1010180081FEC8F3C02121B14FF480712148FFF748
:1010280079FEC8F3003121B14FF004011C48FFF7E5
:1010380071FEC8F3403121B14FF008011848FFF79D
:1010480069FEC8F3803121B14FF001011248FFF762
:1010580061FEC8F3C03121B14FF002010E48FFF71D
:1010680059FEC8F3404121B14FF080710848FFF79D
:1010780051FEC8F3804121B14FF000710448FFF7D9
:1010880049FEDDF800E001B0704700BF1400764269
:1010980010F10F409001764290F00F40D0F00F40D1
:0810A80050F00F4010F00F4062
:100D1C0081B0CDF800E04FF48032FFF7E5FBDDF851
:060D2C0000E001B0704779
:1012FC0081B0CDF800E0FFF7D5FEDDF800E001B0DD
:02130C00704728
:1010B00081B0CDF800E000210448FFF719FE044993
:1010C00004480160DDF800E001B0704700B0034063
:0810D000D50C00004400FF1FD5
:100CF00081B0CDF800E00346CCB20648FFF79EFE77
:100D0000054A147003491846FFF780FEDDF800E03D
:0C0D100001B070474C00FF1F5500FF1F92
:100A3C0081B008B901201FE001210170421C032183
:100A4C001170821C01211170C21C01211170021D38
:100A5C0003211170421D01211170821D00211170A2
:100A6C00C21D0021117000F208020021117000F269
:0C0A7C000A0200211170002001B0704738
:100A0C0081B0CDF800E003460C460CB901200AE099
:100A1C001846FFF739FE1846FFF7FCFE214618462C
:0E0A2C00FFF76EFE0020DDF800E001B070471D
:1006940081B00849884204D1012252B206490A6055
:1006A40006E00649884203D1012252B204490A6095
:1006B40001B0704700B00340EC07904200B00B401B
:0406C4006C069042EE
:1008200081B000F208020021116000F20C020021E8
:10083000116000F218020021116000F21C02002178
:10084000116000F220020021116000F22402002158
:06085000116001B07047C9
:10070C0081B000F20802126893B24FF600721340E7
:10071C009BB20A781AB143F080039BB2FFE74A1CE4
:10072C001278520192B202F0600292B243EA0204D1
:10073C00A4B28A1C12781AB144F01004A4B2FFE7D8
:10074C00CA1C1278920092B202F00C0292B244EAE5
:10075C0002039BB20A1D127802F00302D2B243EAE2
:10076C00020294B200F20C02126893B24FF6F072CD
:10077C0013409BB24A1D12781AB143F008039BB286
:10078C00FFE78A1D12781AB143F004039BB2FFE70E
:10079C00CA1D127802F00302D2B243EA020295B2E9
:1007AC0000F22002126893B24FF6BC7213409BB257
:1007BC0001F2080212781AB143F040039BB2FFE732
:1007CC0001F20902127802F00302D2B243EA0202E9
:1007DC0096B200F22402126893B24FF6B77203EA93
:1007EC00020293B201F20A0212781AB143F0080124
:1007FC0089B200E099B200F20802146000F20C0217
:10080C00156000F22002166000F22402116001B0A3
:02081C00704723
:101418008FB0CDF800E040F2000140F2000ABAF1C6
:10142800050F0FD2ADF80410FFF76EFFBDF80410DA
:1014380080B2091889B2FFF75DFE0AF1010A5FFA66
:101448008AFAECE70520B1FBF0F0FFF783FEC1B2A2
:1014580000280FD002A8ADF804100146BDF9040019
:10146800FFF75CFF0B480121FFF790FF02A802215C
:10147800FFF78CFF41F6FE27C0F2B70700BF00BF99
:101488007F1EFDD100BF00BF00BFDDF800E00FB038
:08149800704700BF1400FF1FA4
:1013100081B0CDF800E00C20FFF7C0FDDDF800E063
:0413200001B0704761
:100E9C0081B0CDF800E01FFA80F900F003F90121D0
:100EAC0009B201FA09F109B208B200F057F81FFAB9
:0E0EBC0089F0FFF709FFDDF800E001B0704794
:100CD40081B0CDF800E0C1B20348FFF7E3FEDDF8D0
:0C0CE40000E001B0704700BF00B003400A
:100AA80082B0CDF800E006468DF8041000228DF8DB
:100AB800062000228DF8052001AA00213046FFF704
:100AC800DFFE00213046FFF7CBFE00213046FFF75E
:100AD8008FFF87B200213046FFF7F2FDB8B2DDF88C
:060AE80000E002B07047BF
:1008880081B0CDF800E00AB9012002E0FFF7AAFE26
:0A0898000020DDF800E001B0704719
:1005EC0081B040F20004531C1B781BB144F0400452
:1005FC00A4B2FFE7931C1B781BB144F02005ADB2ED
:10060C0000E0A5B2137803F01F03DBB245EA030444
:0C061C00A4B28B00C3181C6001B0704732
:1008680081B0ADF800100146BDF8000082008A187A
:0E0878001368C3F3C01202B9F8E701B070476D
:1009F80081B0CDF800E0FFF713FE00B2DDF800E0AB
:040A080001B0704782
:1006280081B000F210038A009A18126890B201B0E3
:02063800704709
:1006C80082B0CDF800E01F228DF8042000228DF8BA
:1006D800052000228DF8062001AA00F0D1F8DDF8E7
:0606E80000E002B07047C3
:1010FC0041F67E27C0F2060700BF00BF7F1EFDD160
:08110C0000BF00BF00BF7047E7
:10115C0054490A880621B2FBF1F292B2524909783D
:10116C00511A89B288420DD34E490A880621B2FB26
:10117C00F1F292B24C490978511889B2884201D8DF
:10118C0006208EE047490A880621B2FBF1F189B2AC
:10119C004A0092B244490978511A89B288420FD355
:1011AC0040490A880621B2FBF1F189B24A0092B299
:1011BC003D490978511889B2884201D8052070E060
:1011CC0038490A880621B2FBF1F292B203214A4354
:1011DC0092B235490978511A89B2884210D33149F3
:1011EC000A880621B2FBF1F292B203214A4392B271
:1011FC002D490978511889B2884201D8042050E051
:10120C0028490A880621B2FBF1F189B28A0092B210
:10121C0025490978511A89B288420FD321490A8885
:10122C000621B2FBF1F189B28A0092B21E4909780B
:10123C00511889B2884201D8032032E019490A8832
:10124C000621B2FBF1F292B205214A4392B2164941
:10125C000978511A89B2884210D312490A8806219A
:10126C00B2FBF1F292B205214A4392B20E490978CF
:10127C00511889B2884201D8022012E00A490A7832
:10128C0008490988891A89B2884209D306490A781B
:10129C0004490988891889B2884201D8012000E0E4
:0C12AC00002070473E00FF1F4000FF1FA5
:1013240081B0CDF800E00E46002183B2002805DA32
:101334000121404280B280B28FB201E098B28FB2F4
:101344003146FFF7E7FD06213446B8B2002908D933
:1013540063184A1E92B2A21812781A70491E89B2F2
:10136400F4E72022227070B1002081B22046421896
:101374001278202A02D1491C89B2F8E74A1E92B297
:0E13840083182D221A70DDF800E001B07047CA
:100F180081B00A4681B200208DB21146052805D25B
:100F28000B1820221A70401CC0B2F7E70B180022D9
:100F38001A70401EC0B20C180A23B5FBF3F203FB6B
:100F4800125292B2303222700A22B5FBF2F292B2F9
:100F580095B202B902E0401EC0B2ECE701B070479A
:1015A00090B072B697480190974802909748039080
:1015B0009748049097480590974806909748079059
:1015C000974808909748099097480A9097480B9039
:1015D00097480C90974998480D9098480E900D9810
:1015E00000F007000F9001F0010050B94CF22050BC
:1015F000934908804DF62810088040F2D211914896
:1016000001809148007800F0010050B18F480078C7
:1016100000F0080020B18D49087840F008000870FB
:1016200021E08B48006840F00051894801608948FA
:10163000006800F48070B0B9864801686FF470509B
:1016400001EA000040F4407182480160814800686E
:1016500040F480717F4801607E4801686FF400703B
:1016600001407C480160AA217B4801700D9800F080
:10167000100060B9794801786FF060000140774848
:10168000017077480078012800D0FAE71CE00D9837
:1016900000F01000C0B10E997248814208D9602153
:1016A0006E4801706E480078802800D0FAE70BE0A1
:1016B0006A4801786FF0600001406848017068482E
:1016C0000078012800D0FAE704996748016067486C
:1016D00001686FF440200140029800F4402001436B
:1016E00062480160624801686FF44030014003982D
:1016F00000F4403001435E4801600F9830B10F980C
:10170000012803D00F98022800D061E0019800F072
:10171000800050B9089800F0400028B10B9800F004
:101720000300002800D100E015E05248006840F4B2
:1017300000715048016050480168504801404E48CF
:101740000160069800F0040028B14D4801684B483C
:1017500001404B4801600A994A48017005994A487E
:101760000170059800F0040038B14848007800F096
:101770001000002800D1F8E705E04448007800F0A8
:10178000100000B1F9E74248007800F0BF01C9B28B
:10179000069800F0FD0001433D480170079800F0F5
:1017A000E0013C48007800F01F0001433948017017
:1017B0000199394801700B99384801700F98022837
:1017C00005D13348007840F0020131480170B8E09B
:1017D000019800F0800020B90B9800F0030000B1E0
:1017E00065E02448006840F4007122480160224806
:1017F00001682248014020480160069800F004007A
:1018000000F04EB80000000000000C0000000100D5
:10181000000014012200000024000000000000006D
:101820000200000046000000000000000000000070
:10183000000000000000000007000000C0D401000C
:101840000E2005400020054000F0074002D0074070
:101850003C80044010D0034000E0074001E0074016
:1018600003E00740803801004480044000700440D9
:10187000048004403880044048900440FFF8FFFE94
:101880004C90044008400640004006400640064098
:101890000140064003400640005006400C40064010
:1018A00028B17A4801687A480140784801600A996D
:1018B000784801707848007800F0BF01C9B20698F6
:1018C00000F0FD00014374480170019973480170F4
:1018D0000B99734801700F98072805D1059840F0BF
:1018E00080017048017002E005996E480170069809
:1018F00000F0040048B10B9800F0030028B96A48D2
:10190000007800F0020000B9F9E7059800F0040043
:1019100038B16548007800F01000002800D1F8E7E1
:1019200005E06148007800F0100000B1F9E7079881
:1019300000F0E0015D48007800F01F0001435B48C3
:101940000170089800F0BF0159480170099800F033
:10195000BF0158480170089800F0400028B1544871
:10196000007840F04001524801700F98052806D1D8
:101970004948007840F00201474801701BE00F9889
:10198000062803D00F98072800D014E049480078B3
:1019900040F04001474801704348007800F04000A3
:1019A00000B9F9E70F98072805D13E48007800F004
:1019B0003F013C4801700F9818B10F98032800D0E0
:1019C0002CE03948007800F00C0000B1F9E73A4803
:1019D000006840F00101384801604FF000013748CD
:1019E00001604FF08001364801604FF00501354835
:1019F00001604FF00101324801603148006800F099
:101A0000800000B9F9E700212D4801602A480168EB
:101A10006FF001000140284801602AE00F9801287A
:101A200003D00F98022800D007E01F48007800F08C
:101A30000C00042800D0F8E71BE00F98042806D01B
:101A40000F98062803D00F98052800D007E0164805
:101A5000007800F00C00082800D0F8E709E00F98A3
:101A6000072806D11048007800F00C000C2800D0A0
:101A7000F8E7154801686FF00F0001400C9800F07E
:101A80000F0001431048016010B070474C900440B3
:101A9000FFF8FFFE084006400140064000500640A7
:101AA0000C40064000400640064006400340064009
:101AB00004400640054006403880044008000440C9
:0C1AC00000000440040004404880044082
:1015680081B002490248016001B07047C0D401004F
:041578005800FF1FF9
:0815340081B0FEE701B0704731
:10153C0081B072B60849086840F47000086000BFBA
:10154C0000BF00BF00BFF1EE100A40F44000E1EE16
:0C155C00100A62B601B0704788ED00E094
:101CB80000B5DFF824B0DFF824A0DFF824C0FFF770
:101CC8009DFBDFF820B0DFF820A0DFF820C0FFF789
:101CD80095FB00BD704700BF0000FF1F4100FF1FBC
:101CE800701C00004400FF1F4800FF1FB41C0000C8
:101D540000B5DFF810B0DFF810A0FFF7CBFB00BD33
:0C1D6400704700BF0000FF1F6C00FF1F55
:100400000000000000000000FFFFFFFF02FDFFFFF3
:101ACC003103000030030000FFFFFFFF00000000A7
:101ADC0000000000000000000000000000000000FA
:101AEC0000000000000000000000000000000000EA
:101AFC00000000000000080000000800FFFFFFFFCE
:101B0C0000000000000000000000000000000000C9
:101B1C0000000000000000000000000000000000B9
:0C1B2C00000000000000000000000000AD
:101B38005103000050030000FFFFFFFF00000000FA
:101B4800000000000000000000000000000000008D
:101B5800000000000000000000000000000000007D
:101B6800000000000000080000000800FFFFFFFF61
:101B7800000000000000000000000000000000005D
:101B8800000000000000000000000000000000004D
:0C1B980000000000000000000000000041
:101BA4006303000062030000FFFFFFFF000000006A
:101BB4000000000000000000000000000000000021
:101BC4000000000000000000000000000000000011
:101BD400000000000000080000000800FFFFFFFFF5
:101BE40000000000000000000000000000000000F1
:101BF40000000000000000000000000000000000E1
:0C1C0400000000000000000000000000D4
:101C1000FFFFFFFFFFFFFFFFFFFFFFFFFFFFFFFFD4
:101C2000FFFFFFFFFFFFFFFFFFFFFFFFFFFFFFFFC4
:101C3000FFFFFFFFFFFFFFFFFFFFFFFFFFFFFFFFB4
:101C4000FFFFFFFFFFFFFFFFFFFFFFFFFFFFFFFFA4
:101C5000FFFFFFFFFFFFFFFFFFFFFFFFFFFFFFFF94
:101C6000FFFFFFFFFFFFFFFFFFFFFFFFFFFFFFFF84
:101C700050726573732074686520627574746F6E3A
:041C8000203A4400C2
:101C8400507265737365642074686520627574743A
:061C94006F6E203A2000F3
:101C9A002D2D2D2053797374656D20496E6974203A
:041CAA002D2D2D00AF
:021CAE00000430
:011CB0003300
:041CB400D50C00004B
:00000001FF
