:100000005BEF07F00000000000EF00F000000000D0
:0A0010000000000000000000F3D71C
:0E001C000001B2B102D08B9801D08B88120087
:0E002A000001B2B102D0899401D08984120085
:0E0038000001B2B102D08B9A01D08B8A120067
:0E0046000001B2B102D0899201D0898212006D
:0E0054000001B2B102D08B9801D08B8812004F
:0E0062000001B2B102D08B9601D08B86120045
:0E0070000001B2B102D0899801D08988120037
:0E007E000001B2B102D08D9201D08D8212002D
:0E008C000001B2B102D08B9801D08B88120017
:0E009A00ACB202D00000FCD7B2C0ADFF120025
:0E00A8000001B2B102D08B9601D08B861200FF
:0E00B6000001B2B102D08D9001D08D801200F9
:0E00C4000001B2B102D08B9001D08B801200EF
:0E00D2000001B2B102D08B9401D08B841200D9
:0E00E0000001B2B102D08B9601D08B861200C7
:0E00EE000001B2B102D08B9801D08B881200B5
:0E00FC000001B2B102D08D9601D08D861200A7
:0E010A000001B2B102D0899001D089801200AC
:0E0118000001B2B102D08B9801D08B8812008A
:0E0126000001B2B102D08B9601D08B86120080
:100134000F0121B302D00000FBD7B2C01CFF120094
:0E0144000001B2B102D08B9E01D08B8E120052
:0E0152000001B2B102D08B9A01D08B8A12004C
:0E0160000001B2B102D08B9201D08B8212004E
:0E016E000001B2B102D08A9001D08A80120046
:0E017C000001B2B102D08B9C01D08B8C12001E
:0E018A000001B2B102D08B9601D08B8612001C
:0E0198000001B2B102D08F9001D08F80120012
:0E01A6000001B2B102D08A9401D08A84120006
:0E01B4000001B2B102D08F9201D08F821200F2
:0E01C2000001B2B102D08B9801D08B881200E0
:0E01D0000001B2B102D08F9401D08F841200D2
:0E01DE000001B2B102D08B9A01D08B8A1200C0
:0E01EC000001B2B102D08D9401D08D841200BA
:0E01FA000001B2B102D08B9C01D08B8C1200A0
:0E0208000001B2B102D08B9E01D08B8E12008D
:0E0216000001B2B102D08A9201D08A82120099
:0E0224000001B2B102D08B9601D08B86120081
:10023200340E0001656F010E666FB20E676F000E1D
:10024200686FFF0E5B6EFF0E5C6E000E5D6E000E41
:100252005E6EFF0E696FFF0E6A6F000E6B6F000E0F
:100262006C6FFF0E616FFF0E626F000E636F000E08
:10027200646F0F01218B900E226F98849892A4AA2A
:0A02820003D01DCF00F0FBD71200DF
:10028C00086A096A100E0C6E0134083609360450DF
:10029C00085E0550D8A0053C095ED8B007D00450C4
:1002AC0008260550D8B0053C0926D89000360136F2
:0602BC000C2EEAD712002F
:1002C2009A0E0001656F000E666FB20E676F000E28
:1002D200686FFF0E5B6EFF0E5C6E000E5D6E000EB1
:1002E2005E6EFF0E696FFF0E6A6F000E6B6F000E7F
:1002F2006C6FFF0E616FFF0E626F000E636F000E78
:10030200646FAC8A900EAB6E948E949C9EAA03D0BE
:08031200AECF00F0FBD7120092
:0A031A00750E0D6E0D2EFED71200B9
:10032400F250026EF29E0500FF6A0150FE6E00500C
:08033400FD6E02BEF28E120004
:10033C000B6A0A6A096A00500402F4CF09F0F3CF81
:10034C0008F001500502F4CF0BF0F3CF0AF0005087
:10035C000502F3500926F4500A22E86A0B220150D8
:10036C000402F3500926F4500A22E86A0B2208C052
:10037C0000F009C001F00AC002F00BC003F012003B
:10038C000001AF6B050EAF5D0AE2AF51AD25E16E1A
:10039C00000EAE21E26E200EE66EAF2BF3D7AF51FE
:1003AC00AD25E16E000EAE21E26EE66AAF07AF51ED
:1003BC00AD25B06F000EAE21B16F0A0E046E000EAB
:1003CC00056EABC000F0ACC001F05ADF08C000F005
:1003DC0009C001F0300E0026B0C0E1FFB1C0E2FF51
:1003EC0000C0E6FF0A0E046E000E056EABC000F0F6
:1003FC00ACC001F045DF00C0ABF001C0ACF0000EAA
:10040C00011802E1000E001801E102D0AF07CFD7AE
:02041C001200CC
:10041E0059C0E1FF5AC0E2FFABC0E9FFACC0EAFF32
:10042E00EECFE6FF57C000F058C001F074DF006A4F
:02043E001200AA
:1004400021D0CF0EAF6EAC943CDF6BD0670EAF6E99
:10045000AC9437DF66D0CF0EAF6EAC8432DF61D0A4
:10046000670EAF6EAC842DDF5CD0440EAF6EAC84F3
:1004700028DF57D0220EAF6EAC8423DF52D0060E99
:10048000006E58D00001000E006EAE1908E1005059
:10049000AD1905E1120EAC1902E1AB51C00AD1E071
:1004A000000E006EAE1908E10050AD1905E1250EF1
:1004B000AC1902E1AB51800AC9E0000E006EAE1922
:1004C00008E10050AD1905E14B0EAC1902E1AB514A
:1004D000000AC1E0000E006EAE1908E10050AD192F
:1004E00005E1960EAC1902E1AB51000AB9E0000E2D
:1004F000006EAE1908E10050AD1905E1E10EAC192E
:1005000002E1AB51000AB1E0AE51000A08E1AD5181
:10051000010A05E1AC51C20A02E1AB51000AAAE0AE
:10052000AED79A0E576E000E586EB20E596E000E70
:060530005A6E006A120081
:1005360021D0CF0EAF6EAC94C1DE6BD0670EAF6E1E
:10054600AC94BCDE66D0CF0EAF6EAC84B7DE61D0A5
:10055600670EAF6EAC84B2DE5CD0440EAF6EAC8478
:10056600ADDE57D0220EAF6EAC84A8DE52D0060E9A
:10057600006E58D00001000E006EAE1908E1005062
:10058600AD1905E1120EAC1902E1AB51C00AD1E07A
:10059600000E006EAE1908E10050AD1905E1250EFA
:1005A600AC1902E1AB51800AC9E0000E006EAE192B
:1005B60008E10050AD1905E14B0EAC1902E1AB5153
:1005C600000AC1E0000E006EAE1908E10050AD1938
:1005D60005E1960EAC1902E1AB51000AB9E0000E36
:1005E600006EAE1908E10050AD1905E1E10EAC1937
:1005F60002E1AB51000AB1E0AE51000A08E1AD518B
:10060600010A05E1AC51C20A02E1AB51000AAAE0B7
:10061600AED79A0E576E000E586EB20E596E000E79
:060626005A6E006A12008A
:10062C0021D0CF0EAF6EAC9446DE6BD0670EAF6EA2
:10063C00AC9441DE66D0CF0EAF6EAC843CDE61D0A4
:10064C00670EAF6EAC8437DE5CD0440EAF6EAC84FC
:10065C0032DE57D0220EAF6EAC842DDE52D0060E99
:10066C00006E58D00001000E006EAE1908E100506B
:10067C00AD1905E1120EAC1902E1AB51C00AD1E083
:10068C00000E006EAE1908E10050AD1905E1250E03
:10069C00AC1902E1AB51800AC9E0000E006EAE1934
:1006AC0008E10050AD1905E14B0EAC1902E1AB515C
:1006BC00000AC1E0000E006EAE1908E10050AD1941
:1006CC0005E1960EAC1902E1AB51000AB9E0000E3F
:1006DC00006EAE1908E10050AD1905E1E10EAC1940
:1006EC0002E1AB51000AB1E0AE51000A08E1AD5194
:1006FC00010A05E1AC51C20A02E1AB51000AAAE0C1
:10070C00AED79A0E576E000E586EB20E596E000E82
:06071C005A6E006A120093
:1007220038D00F0120870D0E1F6F040E1E6F21851A
:100732007FDD7ED00F012087060E1F6F820E1E6F97
:10074200218576DD75D00F012087030E1F6F400EC5
:100752001E6F21856DDD6CD00F012087010E1F6F8A
:10076200A00E1E6F218564DD63D00F012087010E6C
:100772001F6F150E1E6F21855BDD5AD00F0120877A
:100782001F6B8A0E1E6F218553DD52D0060E006E3E
:1007920058D0000E006E0001AE1908E10050AD19EC
:1007A20005E1120EAC1902E1AB51C00ABAE0000E2B
:1007B200006EAE1908E10050AD1905E1250EAC1925
:1007C20002E1AB51800AB6E0000E006EAE1908E1FC
:1007D2000050AD1905E14B0EAC1902E1AB51000A14
:1007E200B2E0000E006EAE1908E10050AD1905E14D
:1007F200960EAC1902E1AB51000AAEE0000E006E9B
:10080200AE1908E10050AD1905E1E10EAC1902E1A3
:10081200AB51000AAAE0AE51000A08E1AD51010A4B
:1008220005E1AC51C20A02E1AB51000AA7E0AED722
:10083200340E576E010E586EB20E596E000E5A6E7D
:04084200006A120036
:10084600C26A181C006E0050C1160F0EC012C08E70
:10085600ABC000F000360090003600900050C21287
:10086600C28058DDC282C2A201D0FDD7C4CF01F03A
:10087600006A00C0ACF001C0ADF0C3500012000E1B
:10088600011200C0ACF001C0ADF0C290000E001421
:10089600026E0150800B036E000E031802E1000E7B
:1008A600021803E00001AC6BAD6BACC000F0ADC04C
:0408B60001F012003B
:0208BA0012002A
:0208BC00120028
:1008BE000001A151010A07E1FF0E156E030E166E1F
:1008CE00330E176E06D0FF0E156E0F0E166ECD0E72
:0408DE00176E12007F
:1008E2002BD0A2C0ABF0A3C0ACF0A4C0ADF0A5C0A9
:1008F200AEF020DE2FD0A2C0ABF0A3C0ACF0A4C0FB
:10090200ADF0A5C0AEF09BDD25D0A2C0ABF0A3C078
:10091200ACF0A4C0ADF0A5C0AEF002DF1BD0A2C007
:10092200ABF0A3C0ACF0A4C0ADF0A5C0AEF07DDECC
:1009320011D0010E006E0ED00001A151000AD1E0CB
:10094200A151010AD8E0A151020ADFE0A151100A27
:06095200E6E0EFD7120001
:10095800090E0B6E1E0E0C6EE40E0D6E0D2EFED7DC
:0C0968000C2EFCD70B2EFAD7000012005A
:10097400A1C0ABF0A2C0ACF0A3C0ADF09CDF1200EC
:10098400A1C0A4F0A2C0A5F00D0E0001A66F0A0E2E
:10099400A76F35D0A4C0ABF0A5C0ACF03EDD3AD013
:1009A400A4C0E9FFA5C0EAFFEE5209E0A4C0ABF081
:1009B400A5C0ACF032DD0001A44BA52BF1D72AD0A1
:1009C400A4C0E9FFA5C0EAFFEE5209E0A4C0ABF061
:1009D400A5C0ACF022DD0001A44BA52BF1D700018A
:1009E400A60EAB6F000EAC6F18DDA70E0001AB6F47
:1009F400000EAC6F12DD0ED0060E006E0CD000019E
:100A0400A351000AC7E0A351010ACAE0A351020A94
:080A1400D7E0F2D7006A1200DE
:100A1C000001A76BA86BA1C0A9F0A2C0AAF0800E20
:100A2C00A219006E800E005C02E1000EA15D0BE2CB
:100A3C00010EA76F000EA86FA1510008A96FA2C0EC
:100A4C00AAF0000EAA57A9C0ABF0AAC0ACF0A3C084
:100A5C00ADF0A4C0AEF094DC060EA56F000EA66F30
:100A6C00000E006EA651005C02E1A551000819E2CF
:100A7C00A551A325E16EA651A421E26E010EA55D40
:100A8C00006E000EA659016E0050A325E96E0150B0
:100A9C00A421EA6EEECFE6FF010EA55F000EA65B69
:100AAC00DFD7A3C0E1FFA4C0E2FF200EE66EA75182
:100ABC00A8111AE0A56BA66BA551A325E96EA6514A
:100ACC00A421EA6EEE50200A03E1A54BA62BF4D725
:100ADC00010EA55F000EA65BA551A325E16EA651E4
:0A0AEC00A421E26E2D0EE66E12004A
:100AF600060E046E000E056E15C000F016C001F05D
:100B060046EC01F01750005C026E000E0158036EB1
:100B160003500001A25D02E10250A15D19E3060E39
:100B2600046E000E056E15C000F016C001F046EC0E
:100B360001F017500024026E000E0120036EA25130
:100B4600035C02E1A151025C03E3060E006E12D1C2
:100B5600060E046E000E056E15C000F016C001F0FC
:100B660046EC01F000C003F001C004F00336039028
:100B760004361750035C016E000E0458026E0250D4
:100B8600A25D02E10150A15D20E3060E046E000E97
:100B9600056E15C000F016C001F046EC01F000C06D
:100BA60003F001C004F00336039004361750032403
:100BB600016E000E0420026EA251025C02E1A151F8
:100BC600015C03E3050E006ED5D0060E046E000E22
:100BD600056E15C000F016C001F046EC01F0030EDC
:100BE600046E000E056E9EEC01F01750005C026E5E
:100BF600000E0158036E0350A25D02E10250A15D92
:100C06001FE3060E046E000E056E15C000F016C03A
:100C160001F046EC01F0030E046E000E056E9EEC2C
:100C260001F017500024026E000E0120036EA2513F
:100C3600035C02E1A151025C03E3040E006E9AD04C
:100C4600060E046E000E056E15C000F016C001F00B
:100C560046EC01F000C003F001C004F00336039037
:100C660004360336039004361750035C016E000EFB
:100C76000458026E0250A25D02E10150A15D23E319
:100C8600060E046E000E056E15C000F016C001F0CB
:100C960046EC01F000C003F001C004F003360390F7
:100CA600043603360390043617500324016E000EF3
:100CB6000420026EA251025C02E1A151015C03E331
:100CC600030E006E57D0060E046E000E056E15C09C
:100CD60000F016C001F046EC01F0050E046E000EA1
:100CE600056E9EEC01F01750005C026E000E015876
:100CF600036E0350A25D02E10250A15D1FE3060EE2
:100D0600046E000E056E15C000F016C001F046EC2C
:100D160001F0050E046E000E056E9EEC01F01750F4
:100D26000024026E000E0120036EA251035C02E154
:100D3600A151025C03E3020E006E1CD01750155C35
:100D4600016E000E1658026E0250A25D02E10150BD
:100D5600A15D0FE317501524016E000E1620026EDA
:100D6600A251025C02E1A151015C03E3010E006E97
:060D760001D0006A12002A
:100D7C00D00E0C6EC90E0D6E0D2EFED70C2EFCD7A0
:060D8C000000000012004F
:020D920012004D
:100D94000001AB6B56DD00C0A1F001C0A2F0000E53
:100DA4000001A36FA46FA1C000F0A2C001F0A3C012
:080DB40002F0A4C003F01200DC
:100DBC00100E0001A16F800EA26F250EA36F000E06
:100DCC00A46FA56F88DD2D0E0001A16F000EA26F20
:0A0DDC00020EA36FD1DDBADD120094
:100DE6000900F5CFE6FF0006FBE10106F9E1120076
:100DF600C40E0001A16F0E0EA26F000EA36FB7DD29
:100E0600020EA16F59DD57DDC1DFA3DD190EA16FFB
:0C0E1600000EA26F020EA36FB2DD1200EE
:100E220000019F6BA06B606B050E605D08E2B1DF95
:100E320000509F270150A023A0DF602BF5D7050E9D
:100E4200046E000E056E9FC000F0A0C001F046ECDB
:100E520001F000C0A1F001C0A2F04CDE00C05FF0C2
:100E62000050000A18E05FC0A1F0000EA26F6D0EE4
:100E7200A36F000EA46FD1DD410EA16F000EA26F11
:100E8200010EA36F7EDD6D0E0001A16F000EA26F39
:100E9200020EA36F76DD190E0B6E5A0E0C6EB10E9A
:100EA2000D6E0D2EFED70C2EFCD70B2EFAD700009E
:040EB200000012002A
:0E0EB600B3EC07F080DF9CDFB1DFFED7FFD783
:100F660010EE15F0420E006E010E016E240EF66EA6
:0E0F76000F0EF76E000EF86EF3EC06F0120090
:100EC4000A01B200C400B200B600B200A800B20029
:100ED400EE00B2005201B2006001B2006E01B20035
:100EE4004401B2007C01B2002601B2001801B20034
:100EF400FFFFFFFFFFFFFFFFFFFFFFFFFFFFFFFFFE
:100F0400FFFFFFFFFFFFFFFFFFFFFFFFFFFFFFFFED
:100F1400FFFFFFFFFFFFFFFFFFFFFFFFFFFFFFFFDD
:020F24000004C7
:010F26003397
:010F27003891
:100F280050726573732074686520627574746F6E8F
:040F3800203A440017
:100F3C002D2D2D2053797374656D20496E697420A5
:040F4C002D2D2D001A
:100F5000507265737365642074686520627574747B
:060F60006F6E203A200034
:020000040030CA
:0E00000015137F7CF98B91FFFFC0FFE0FF40DE
:00000001FF
